{
    "_format": "hh-sol-artifact-1",
    "contractName": "EmailDomainVerificationToken",
    "sourceName": "contracts/EmailDomainVerificationToken.sol",
    "abi": [
        {
            "inputs": [
                {
                    "internalType": "string",
                    "name": "name",
                    "type": "string"
                },
                {
                    "internalType": "string",
                    "name": "symbol",
                    "type": "string"
                }
            ],
            "stateMutability": "nonpayable",
            "type": "constructor"
        },
        {
            "anonymous": false,
            "inputs": [
                {
                    "indexed": true,
                    "internalType": "address",
                    "name": "owner",
                    "type": "address"
                },
                {
                    "indexed": true,
                    "internalType": "address",
                    "name": "approved",
                    "type": "address"
                },
                {
                    "indexed": true,
                    "internalType": "uint256",
                    "name": "tokenId",
                    "type": "uint256"
                }
            ],
            "name": "Approval",
            "type": "event"
        },
        {
            "anonymous": false,
            "inputs": [
                {
                    "indexed": true,
                    "internalType": "address",
                    "name": "owner",
                    "type": "address"
                },
                {
                    "indexed": true,
                    "internalType": "address",
                    "name": "operator",
                    "type": "address"
                },
                {
                    "indexed": false,
                    "internalType": "bool",
                    "name": "approved",
                    "type": "bool"
                }
            ],
            "name": "ApprovalForAll",
            "type": "event"
        },
        {
            "anonymous": false,
            "inputs": [
                {
                    "indexed": true,
                    "internalType": "bytes32",
                    "name": "role",
                    "type": "bytes32"
                },
                {
                    "indexed": true,
                    "internalType": "bytes32",
                    "name": "previousAdminRole",
                    "type": "bytes32"
                },
                {
                    "indexed": true,
                    "internalType": "bytes32",
                    "name": "newAdminRole",
                    "type": "bytes32"
                }
            ],
            "name": "RoleAdminChanged",
            "type": "event"
        },
        {
            "anonymous": false,
            "inputs": [
                {
                    "indexed": true,
                    "internalType": "bytes32",
                    "name": "role",
                    "type": "bytes32"
                },
                {
                    "indexed": true,
                    "internalType": "address",
                    "name": "account",
                    "type": "address"
                },
                {
                    "indexed": true,
                    "internalType": "address",
                    "name": "sender",
                    "type": "address"
                }
            ],
            "name": "RoleGranted",
            "type": "event"
        },
        {
            "anonymous": false,
            "inputs": [
                {
                    "indexed": true,
                    "internalType": "bytes32",
                    "name": "role",
                    "type": "bytes32"
                },
                {
                    "indexed": true,
                    "internalType": "address",
                    "name": "account",
                    "type": "address"
                },
                {
                    "indexed": true,
                    "internalType": "address",
                    "name": "sender",
                    "type": "address"
                }
            ],
            "name": "RoleRevoked",
            "type": "event"
        },
        {
            "anonymous": false,
            "inputs": [
                {
                    "indexed": true,
                    "internalType": "address",
                    "name": "from",
                    "type": "address"
                },
                {
                    "indexed": true,
                    "internalType": "address",
                    "name": "to",
                    "type": "address"
                },
                {
                    "indexed": true,
                    "internalType": "uint256",
                    "name": "tokenId",
                    "type": "uint256"
                }
            ],
            "name": "Transfer",
            "type": "event"
        },
        {
            "inputs": [],
            "name": "DEFAULT_ADMIN_ROLE",
            "outputs": [
                {
                    "internalType": "bytes32",
                    "name": "",
                    "type": "bytes32"
                }
            ],
            "stateMutability": "view",
            "type": "function"
        },
        {
            "inputs": [],
            "name": "MINTER_ROLE",
            "outputs": [
                {
                    "internalType": "bytes32",
                    "name": "",
                    "type": "bytes32"
                }
            ],
            "stateMutability": "view",
            "type": "function"
        },
        {
            "inputs": [
                {
                    "internalType": "address",
                    "name": "to",
                    "type": "address"
                },
                {
                    "internalType": "uint256",
                    "name": "tokenId",
                    "type": "uint256"
                }
            ],
            "name": "approve",
            "outputs": [],
            "stateMutability": "nonpayable",
            "type": "function"
        },
        {
            "inputs": [
                {
                    "internalType": "address",
                    "name": "owner",
                    "type": "address"
                }
            ],
            "name": "balanceOf",
            "outputs": [
                {
                    "internalType": "uint256",
                    "name": "",
                    "type": "uint256"
                }
            ],
            "stateMutability": "view",
            "type": "function"
        },
        {
            "inputs": [
                {
                    "internalType": "uint256",
                    "name": "",
                    "type": "uint256"
                }
            ],
            "name": "emailDomains",
            "outputs": [
                {
                    "internalType": "string",
                    "name": "",
                    "type": "string"
                }
            ],
            "stateMutability": "view",
            "type": "function"
        },
        {
            "inputs": [
                {
                    "internalType": "uint256",
                    "name": "tokenId",
                    "type": "uint256"
                }
            ],
            "name": "getApproved",
            "outputs": [
                {
                    "internalType": "address",
                    "name": "",
                    "type": "address"
                }
            ],
            "stateMutability": "view",
            "type": "function"
        },
        {
            "inputs": [
                {
                    "internalType": "bytes32",
                    "name": "role",
                    "type": "bytes32"
                }
            ],
            "name": "getRoleAdmin",
            "outputs": [
                {
                    "internalType": "bytes32",
                    "name": "",
                    "type": "bytes32"
                }
            ],
            "stateMutability": "view",
            "type": "function"
        },
        {
            "inputs": [
                {
                    "internalType": "bytes32",
                    "name": "role",
                    "type": "bytes32"
                },
                {
                    "internalType": "address",
                    "name": "account",
                    "type": "address"
                }
            ],
            "name": "grantRole",
            "outputs": [],
            "stateMutability": "nonpayable",
            "type": "function"
        },
        {
            "inputs": [
                {
                    "internalType": "bytes32",
                    "name": "role",
                    "type": "bytes32"
                },
                {
                    "internalType": "address",
                    "name": "account",
                    "type": "address"
                }
            ],
            "name": "hasRole",
            "outputs": [
                {
                    "internalType": "bool",
                    "name": "",
                    "type": "bool"
                }
            ],
            "stateMutability": "view",
            "type": "function"
        },
        {
            "inputs": [
                {
                    "internalType": "address",
                    "name": "owner",
                    "type": "address"
                },
                {
                    "internalType": "address",
                    "name": "operator",
                    "type": "address"
                }
            ],
            "name": "isApprovedForAll",
            "outputs": [
                {
                    "internalType": "bool",
                    "name": "",
                    "type": "bool"
                }
            ],
            "stateMutability": "view",
            "type": "function"
        },
        {
            "inputs": [],
            "name": "name",
            "outputs": [
                {
                    "internalType": "string",
                    "name": "",
                    "type": "string"
                }
            ],
            "stateMutability": "view",
            "type": "function"
        },
        {
            "inputs": [
                {
                    "internalType": "uint256",
                    "name": "tokenId",
                    "type": "uint256"
                }
            ],
            "name": "ownerOf",
            "outputs": [
                {
                    "internalType": "address",
                    "name": "",
                    "type": "address"
                }
            ],
            "stateMutability": "view",
            "type": "function"
        },
        {
            "inputs": [
                {
                    "internalType": "address",
                    "name": "account",
                    "type": "address"
                },
                {
                    "internalType": "string",
                    "name": "emailDomain",
                    "type": "string"
                },
                {
                    "internalType": "bytes",
                    "name": "signature",
                    "type": "bytes"
                }
            ],
            "name": "recover",
            "outputs": [
                {
                    "internalType": "address",
                    "name": "",
                    "type": "address"
                }
            ],
            "stateMutability": "view",
            "type": "function"
        },
        {
            "inputs": [
                {
                    "internalType": "address",
                    "name": "account",
                    "type": "address"
                },
                {
                    "internalType": "string",
                    "name": "emailDomain",
                    "type": "string"
                },
                {
                    "internalType": "bytes",
                    "name": "signature",
                    "type": "bytes"
                }
            ],
            "name": "redeem",
            "outputs": [],
            "stateMutability": "nonpayable",
            "type": "function"
        },
        {
            "inputs": [
                {
                    "internalType": "bytes32",
                    "name": "role",
                    "type": "bytes32"
                },
                {
                    "internalType": "address",
                    "name": "account",
                    "type": "address"
                }
            ],
            "name": "renounceRole",
            "outputs": [],
            "stateMutability": "nonpayable",
            "type": "function"
        },
        {
            "inputs": [
                {
                    "internalType": "bytes32",
                    "name": "role",
                    "type": "bytes32"
                },
                {
                    "internalType": "address",
                    "name": "account",
                    "type": "address"
                }
            ],
            "name": "revokeRole",
            "outputs": [],
            "stateMutability": "nonpayable",
            "type": "function"
        },
        {
            "inputs": [
                {
                    "internalType": "address",
                    "name": "from",
                    "type": "address"
                },
                {
                    "internalType": "address",
                    "name": "to",
                    "type": "address"
                },
                {
                    "internalType": "uint256",
                    "name": "tokenId",
                    "type": "uint256"
                }
            ],
            "name": "safeTransferFrom",
            "outputs": [],
            "stateMutability": "nonpayable",
            "type": "function"
        },
        {
            "inputs": [
                {
                    "internalType": "address",
                    "name": "from",
                    "type": "address"
                },
                {
                    "internalType": "address",
                    "name": "to",
                    "type": "address"
                },
                {
                    "internalType": "uint256",
                    "name": "tokenId",
                    "type": "uint256"
                },
                {
                    "internalType": "bytes",
                    "name": "data",
                    "type": "bytes"
                }
            ],
            "name": "safeTransferFrom",
            "outputs": [],
            "stateMutability": "nonpayable",
            "type": "function"
        },
        {
            "inputs": [
                {
                    "internalType": "address",
                    "name": "_owner",
                    "type": "address"
                }
            ],
            "name": "setAdminRole",
            "outputs": [],
            "stateMutability": "nonpayable",
            "type": "function"
        },
        {
            "inputs": [
                {
                    "internalType": "address",
                    "name": "operator",
                    "type": "address"
                },
                {
                    "internalType": "bool",
                    "name": "approved",
                    "type": "bool"
                }
            ],
            "name": "setApprovalForAll",
            "outputs": [],
            "stateMutability": "nonpayable",
            "type": "function"
        },
        {
            "inputs": [
                {
                    "internalType": "address",
                    "name": "_minter",
                    "type": "address"
                }
            ],
            "name": "setMinterRole",
            "outputs": [],
            "stateMutability": "nonpayable",
            "type": "function"
        },
        {
            "inputs": [
                {
                    "internalType": "bytes4",
                    "name": "interfaceId",
                    "type": "bytes4"
                }
            ],
            "name": "supportsInterface",
            "outputs": [
                {
                    "internalType": "bool",
                    "name": "",
                    "type": "bool"
                }
            ],
            "stateMutability": "view",
            "type": "function"
        },
        {
            "inputs": [],
            "name": "symbol",
            "outputs": [
                {
                    "internalType": "string",
                    "name": "",
                    "type": "string"
                }
            ],
            "stateMutability": "view",
            "type": "function"
        },
        {
            "inputs": [
                {
                    "internalType": "uint256",
                    "name": "index",
                    "type": "uint256"
                }
            ],
            "name": "tokenByIndex",
            "outputs": [
                {
                    "internalType": "uint256",
                    "name": "",
                    "type": "uint256"
                }
            ],
            "stateMutability": "view",
            "type": "function"
        },
        {
            "inputs": [
                {
                    "internalType": "address",
                    "name": "owner",
                    "type": "address"
                },
                {
                    "internalType": "uint256",
                    "name": "index",
                    "type": "uint256"
                }
            ],
            "name": "tokenOfOwnerByIndex",
            "outputs": [
                {
                    "internalType": "uint256",
                    "name": "",
                    "type": "uint256"
                }
            ],
            "stateMutability": "view",
            "type": "function"
        },
        {
            "inputs": [
                {
                    "internalType": "uint256",
                    "name": "_tokenId",
                    "type": "uint256"
                }
            ],
            "name": "tokenURI",
            "outputs": [
                {
                    "internalType": "string",
                    "name": "",
                    "type": "string"
                }
            ],
            "stateMutability": "view",
            "type": "function"
        },
        {
            "inputs": [],
            "name": "totalSupply",
            "outputs": [
                {
                    "internalType": "uint256",
                    "name": "",
                    "type": "uint256"
                }
            ],
            "stateMutability": "view",
            "type": "function"
        },
        {
            "inputs": [
                {
                    "internalType": "address",
                    "name": "from",
                    "type": "address"
                },
                {
                    "internalType": "address",
                    "name": "to",
                    "type": "address"
                },
                {
                    "internalType": "uint256",
                    "name": "tokenId",
                    "type": "uint256"
                }
            ],
            "name": "transferFrom",
            "outputs": [],
            "stateMutability": "nonpayable",
            "type": "function"
        }
    ],
    "bytecode": "0x61014060405260405180602001604052806000815250600d9081620000259190620005c7565b503480156200003357600080fd5b5060405162005aaf38038062005aaf833981810160405281019062000059919062000812565b816040518060400160405280600581526020017f312e302e3000000000000000000000000000000000000000000000000000000081525083838160009081620000a39190620005c7565b508060019081620000b59190620005c7565b50505060008280519060200120905060008280519060200120905060007f8b73c3c69bb8fe3d512ecc4cf759cc79239f7b179b0ffacaa9a75d522b39400f90508260e081815250508161010081815250504660a08181525050620001218184846200019660201b60201c565b608081815250503073ffffffffffffffffffffffffffffffffffffffff1660c08173ffffffffffffffffffffffffffffffffffffffff168152505080610120818152505050505050506200018e6000801b62000182620001d260201b60201c565b620001da60201b60201c565b505062000965565b60008383834630604051602001620001b395949392919062000908565b6040516020818303038152906040528051906020012090509392505050565b600033905090565b620001ec8282620001f060201b60201c565b5050565b620002028282620002e260201b60201c565b620002de576001600a600084815260200190815260200160002060000160008373ffffffffffffffffffffffffffffffffffffffff1673ffffffffffffffffffffffffffffffffffffffff16815260200190815260200160002060006101000a81548160ff02191690831515021790555062000283620001d260201b60201c565b73ffffffffffffffffffffffffffffffffffffffff168173ffffffffffffffffffffffffffffffffffffffff16837f2f8788117e7eff1d82e926ec794901d17c78024a50270940304540a733656f0d60405160405180910390a45b5050565b6000600a600084815260200190815260200160002060000160008373ffffffffffffffffffffffffffffffffffffffff1673ffffffffffffffffffffffffffffffffffffffff16815260200190815260200160002060009054906101000a900460ff16905092915050565b600081519050919050565b7f4e487b7100000000000000000000000000000000000000000000000000000000600052604160045260246000fd5b7f4e487b7100000000000000000000000000000000000000000000000000000000600052602260045260246000fd5b60006002820490506001821680620003cf57607f821691505b602082108103620003e557620003e462000387565b5b50919050565b60008190508160005260206000209050919050565b60006020601f8301049050919050565b600082821b905092915050565b6000600883026200044f7fffffffffffffffffffffffffffffffffffffffffffffffffffffffffffffffff8262000410565b6200045b868362000410565b95508019841693508086168417925050509392505050565b6000819050919050565b6000819050919050565b6000620004a8620004a26200049c8462000473565b6200047d565b62000473565b9050919050565b6000819050919050565b620004c48362000487565b620004dc620004d382620004af565b8484546200041d565b825550505050565b600090565b620004f3620004e4565b62000500818484620004b9565b505050565b5b8181101562000528576200051c600082620004e9565b60018101905062000506565b5050565b601f82111562000577576200054181620003eb565b6200054c8462000400565b810160208510156200055c578190505b620005746200056b8562000400565b83018262000505565b50505b505050565b600082821c905092915050565b60006200059c600019846008026200057c565b1980831691505092915050565b6000620005b7838362000589565b9150826002028217905092915050565b620005d2826200034d565b67ffffffffffffffff811115620005ee57620005ed62000358565b5b620005fa8254620003b6565b620006078282856200052c565b600060209050601f8311600181146200063f57600084156200062a578287015190505b620006368582620005a9565b865550620006a6565b601f1984166200064f86620003eb565b60005b82811015620006795784890151825560018201915060208501945060208101905062000652565b8683101562000699578489015162000695601f89168262000589565b8355505b6001600288020188555050505b505050505050565b6000604051905090565b600080fd5b600080fd5b600080fd5b600080fd5b6000601f19601f8301169050919050565b620006e882620006cc565b810181811067ffffffffffffffff821117156200070a576200070962000358565b5b80604052505050565b60006200071f620006ae565b90506200072d8282620006dd565b919050565b600067ffffffffffffffff82111562000750576200074f62000358565b5b6200075b82620006cc565b9050602081019050919050565b60005b83811015620007885780820151818401526020810190506200076b565b60008484015250505050565b6000620007ab620007a58462000732565b62000713565b905082815260208101848484011115620007ca57620007c9620006c7565b5b620007d784828562000768565b509392505050565b600082601f830112620007f757620007f6620006c2565b5b81516200080984826020860162000794565b91505092915050565b600080604083850312156200082c576200082b620006b8565b5b600083015167ffffffffffffffff8111156200084d576200084c620006bd565b5b6200085b85828601620007df565b925050602083015167ffffffffffffffff8111156200087f576200087e620006bd565b5b6200088d85828601620007df565b9150509250929050565b6000819050919050565b620008ac8162000897565b82525050565b620008bd8162000473565b82525050565b600073ffffffffffffffffffffffffffffffffffffffff82169050919050565b6000620008f082620008c3565b9050919050565b6200090281620008e3565b82525050565b600060a0820190506200091f6000830188620008a1565b6200092e6020830187620008a1565b6200093d6040830186620008a1565b6200094c6060830185620008b2565b6200095b6080830184620008f7565b9695505050505050565b60805160a05160c05160e05161010051610120516150fa620009b56000396000612dd301526000612e1501526000612df401526000612d2901526000612d7f01526000612da801526150fa6000f3fe608060405234801561001057600080fd5b50600436106101c45760003560e01c80636352211e116100f9578063a22cb46511610097578063d539139311610071578063d539139314610539578063d547741f14610557578063e396769414610573578063e985e9c5146105a3576101c4565b8063a22cb465146104d1578063b88d4fde146104ed578063c87b56dd14610509576101c4565b806391d14854116100d357806391d1485414610449578063945d12291461047957806395d89b4114610495578063a217fddf146104b3576101c4565b80636352211e146103cd57806370a08231146103fd57806377a9c7ef1461042d576101c4565b80632f2ff15d1161016657806342842e0e1161014057806342842e0e146103355780634adc7cfd146103515780634f6ccce71461036d5780635d0af9ad1461039d576101c4565b80632f2ff15d146102cd5780632f745c59146102e957806336568abe14610319576101c4565b8063095ea7b3116101a2578063095ea7b31461024757806318160ddd1461026357806323b872dd14610281578063248a9ca31461029d576101c4565b806301ffc9a7146101c957806306fdde03146101f9578063081812fc14610217575b600080fd5b6101e360048036038101906101de91906132cc565b6105d3565b6040516101f09190613314565b60405180910390f35b6102016105e5565b60405161020e91906133bf565b60405180910390f35b610231600480360381019061022c9190613417565b610677565b60405161023e9190613485565b60405180910390f35b610261600480360381019061025c91906134cc565b6106bd565b005b61026b6107d4565b604051610278919061351b565b60405180910390f35b61029b60048036038101906102969190613536565b6107e1565b005b6102b760048036038101906102b291906135bf565b610841565b6040516102c491906135fb565b60405180910390f35b6102e760048036038101906102e29190613616565b610861565b005b61030360048036038101906102fe91906134cc565b610882565b604051610310919061351b565b60405180910390f35b610333600480360381019061032e9190613616565b610927565b005b61034f600480360381019061034a9190613536565b6109aa565b005b61036b60048036038101906103669190613656565b6109ca565b005b61038760048036038101906103829190613417565b6109fc565b604051610394919061351b565b60405180910390f35b6103b760048036038101906103b29190613417565b610a6d565b6040516103c491906133bf565b60405180910390f35b6103e760048036038101906103e29190613417565b610b0d565b6040516103f49190613485565b60405180910390f35b61041760048036038101906104129190613656565b610b93565b604051610424919061351b565b60405180910390f35b61044760048036038101906104429190613818565b610c4a565b005b610463600480360381019061045e9190613616565b610d15565b6040516104709190613314565b60405180910390f35b610493600480360381019061048e9190613656565b610d80565b005b61049d610dbb565b6040516104aa91906133bf565b60405180910390f35b6104bb610e4d565b6040516104c891906135fb565b60405180910390f35b6104eb60048036038101906104e691906138d4565b610e54565b005b610507600480360381019061050291906139b5565b610e6a565b005b610523600480360381019061051e9190613417565b610ecc565b60405161053091906133bf565b60405180910390f35b6105416110f3565b60405161054e91906135fb565b60405180910390f35b610571600480360381019061056c9190613616565b611117565b005b61058d60048036038101906105889190613a38565b611138565b60405161059a9190613485565b60405180910390f35b6105bd60048036038101906105b89190613ac3565b61115b565b6040516105ca9190613314565b60405180910390f35b60006105de826111ef565b9050919050565b6060600080546105f490613b32565b80601f016020809104026020016040519081016040528092919081815260200182805461062090613b32565b801561066d5780601f106106425761010080835404028352916020019161066d565b820191906000526020600020905b81548152906001019060200180831161065057829003601f168201915b5050505050905090565b600061068282611269565b6004600083815260200190815260200160002060009054906101000a900473ffffffffffffffffffffffffffffffffffffffff169050919050565b60006106c882610b0d565b90508073ffffffffffffffffffffffffffffffffffffffff168373ffffffffffffffffffffffffffffffffffffffff1603610738576040517f08c379a000000000000000000000000000000000000000000000000000000000815260040161072f90613bd5565b60405180910390fd5b8073ffffffffffffffffffffffffffffffffffffffff166107576112b4565b73ffffffffffffffffffffffffffffffffffffffff1614806107865750610785816107806112b4565b61115b565b5b6107c5576040517f08c379a00000000000000000000000000000000000000000000000000000000081526004016107bc90613c67565b60405180910390fd5b6107cf83836112bc565b505050565b6000600880549050905090565b6107f26107ec6112b4565b82611375565b610831576040517f08c379a000000000000000000000000000000000000000000000000000000000815260040161082890613cf9565b60405180910390fd5b61083c83838361140a565b505050565b6000600a6000838152602001908152602001600020600101549050919050565b61086a82610841565b61087381611703565b61087d8383611717565b505050565b600061088d83610b93565b82106108ce576040517f08c379a00000000000000000000000000000000000000000000000000000000081526004016108c590613d8b565b60405180910390fd5b600660008473ffffffffffffffffffffffffffffffffffffffff1673ffffffffffffffffffffffffffffffffffffffff168152602001908152602001600020600083815260200190815260200160002054905092915050565b61092f6112b4565b73ffffffffffffffffffffffffffffffffffffffff168173ffffffffffffffffffffffffffffffffffffffff161461099c576040517f08c379a000000000000000000000000000000000000000000000000000000000815260040161099390613e1d565b60405180910390fd5b6109a682826117f8565b5050565b6109c583838360405180602001604052806000815250610e6a565b505050565b6000801b6109d781611703565b6109eb6000801b6109e66112b4565b611117565b6109f86000801b836118da565b5050565b6000610a066107d4565b8210610a47576040517f08c379a0000000000000000000000000000000000000000000000000000000008152600401610a3e90613eaf565b60405180910390fd5b60088281548110610a5b57610a5a613ecf565b5b90600052602060002001549050919050565b600c6020528060005260406000206000915090508054610a8c90613b32565b80601f0160208091040260200160405190810160405280929190818152602001828054610ab890613b32565b8015610b055780601f10610ada57610100808354040283529160200191610b05565b820191906000526020600020905b815481529060010190602001808311610ae857829003601f168201915b505050505081565b600080610b19836118e8565b9050600073ffffffffffffffffffffffffffffffffffffffff168173ffffffffffffffffffffffffffffffffffffffff1603610b8a576040517f08c379a0000000000000000000000000000000000000000000000000000000008152600401610b8190613f4a565b60405180910390fd5b80915050919050565b60008073ffffffffffffffffffffffffffffffffffffffff168273ffffffffffffffffffffffffffffffffffffffff1603610c03576040517f08c379a0000000000000000000000000000000000000000000000000000000008152600401610bfa90613fdc565b60405180910390fd5b600360008373ffffffffffffffffffffffffffffffffffffffff1673ffffffffffffffffffffffffffffffffffffffff168152602001908152602001600020549050919050565b610ca1610c578585611925565b83838080601f016020809104026020016040519081016040528093929190818152602001838380828437600081840152601f19601f82011690508083019250505050505050611989565b610ce0576040517f08c379a0000000000000000000000000000000000000000000000000000000008152600401610cd790614048565b60405180910390fd5b610cec84600b546119c6565b82600c6000600b5481526020019081526020016000209081610d0e9190614214565b5050505050565b6000600a600084815260200190815260200160002060000160008373ffffffffffffffffffffffffffffffffffffffff1673ffffffffffffffffffffffffffffffffffffffff16815260200190815260200160002060009054906101000a900460ff16905092915050565b6000801b610d8d81611703565b610db77f9f2df0fed2c77648de5860a4cc508cd0818c85b8b8a1ab4ceeef8d981c8956a6836118da565b5050565b606060018054610dca90613b32565b80601f0160208091040260200160405190810160405280929190818152602001828054610df690613b32565b8015610e435780601f10610e1857610100808354040283529160200191610e43565b820191906000526020600020905b815481529060010190602001808311610e2657829003601f168201915b5050505050905090565b6000801b81565b610e66610e5f6112b4565b83836119e4565b5050565b610e7b610e756112b4565b83611375565b610eba576040517f08c379a0000000000000000000000000000000000000000000000000000000008152600401610eb190613cf9565b60405180910390fd5b610ec684848484611b50565b50505050565b6060610ed6613238565b60405180610120016040528060e88152602001614f9d60e8913981600060138110610f0457610f03613ecf565b5b6020020181905250600c60008481526020019081526020016000208054610f2a90613b32565b80601f0160208091040260200160405190810160405280929190818152602001828054610f5690613b32565b8015610fa35780601f10610f7857610100808354040283529160200191610fa3565b820191906000526020600020905b815481529060010190602001808311610f8657829003601f168201915b505050505081600160138110610fbc57610fbb613ecf565b5b60200201819052506040518060400160405280601181526020017f3c2f746578743e3c2f673e3c2f7376673e0000000000000000000000000000008152508160026013811061100e5761100d613ecf565b5b602002018190525060008160006013811061102c5761102b613ecf565b5b60200201518260016013811061104557611044613ecf565b5b60200201518360026013811061105e5761105d613ecf565b5b602002015160405160200161107593929190614322565b604051602081830303815290604052905060006110c4611096600b54611bac565b61109f84611c7a565b6040516020016110b0929190614483565b604051602081830303815290604052611c7a565b9050806040516020016110d79190614514565b6040516020818303038152906040529150819350505050919050565b7f9f2df0fed2c77648de5860a4cc508cd0818c85b8b8a1ab4ceeef8d981c8956a681565b61112082610841565b61112981611703565b61113383836117f8565b505050565b6000806111458585611925565b90506111518184611ddd565b9150509392505050565b6000600560008473ffffffffffffffffffffffffffffffffffffffff1673ffffffffffffffffffffffffffffffffffffffff16815260200190815260200160002060008373ffffffffffffffffffffffffffffffffffffffff1673ffffffffffffffffffffffffffffffffffffffff16815260200190815260200160002060009054906101000a900460ff16905092915050565b60007f7965db0b000000000000000000000000000000000000000000000000000000007bffffffffffffffffffffffffffffffffffffffffffffffffffffffff1916827bffffffffffffffffffffffffffffffffffffffffffffffffffffffff19161480611262575061126182611e04565b5b9050919050565b61127281611e7e565b6112b1576040517f08c379a00000000000000000000000000000000000000000000000000000000081526004016112a890613f4a565b60405180910390fd5b50565b600033905090565b816004600083815260200190815260200160002060006101000a81548173ffffffffffffffffffffffffffffffffffffffff021916908373ffffffffffffffffffffffffffffffffffffffff160217905550808273ffffffffffffffffffffffffffffffffffffffff1661132f83610b0d565b73ffffffffffffffffffffffffffffffffffffffff167f8c5be1e5ebec7d5bd14f71427d1e84f3dd0314c0f7b2291e5b200ac8c7c3b92560405160405180910390a45050565b60008061138183610b0d565b90508073ffffffffffffffffffffffffffffffffffffffff168473ffffffffffffffffffffffffffffffffffffffff1614806113c357506113c2818561115b565b5b8061140157508373ffffffffffffffffffffffffffffffffffffffff166113e984610677565b73ffffffffffffffffffffffffffffffffffffffff16145b91505092915050565b8273ffffffffffffffffffffffffffffffffffffffff1661142a82610b0d565b73ffffffffffffffffffffffffffffffffffffffff1614611480576040517f08c379a0000000000000000000000000000000000000000000000000000000008152600401611477906145a8565b60405180910390fd5b600073ffffffffffffffffffffffffffffffffffffffff168273ffffffffffffffffffffffffffffffffffffffff16036114ef576040517f08c379a00000000000000000000000000000000000000000000000000000000081526004016114e69061463a565b60405180910390fd5b6114fc8383836001611ebf565b8273ffffffffffffffffffffffffffffffffffffffff1661151c82610b0d565b73ffffffffffffffffffffffffffffffffffffffff1614611572576040517f08c379a0000000000000000000000000000000000000000000000000000000008152600401611569906145a8565b60405180910390fd5b6004600082815260200190815260200160002060006101000a81549073ffffffffffffffffffffffffffffffffffffffff02191690556001600360008573ffffffffffffffffffffffffffffffffffffffff1673ffffffffffffffffffffffffffffffffffffffff168152602001908152602001600020600082825403925050819055506001600360008473ffffffffffffffffffffffffffffffffffffffff1673ffffffffffffffffffffffffffffffffffffffff16815260200190815260200160002060008282540192505081905550816002600083815260200190815260200160002060006101000a81548173ffffffffffffffffffffffffffffffffffffffff021916908373ffffffffffffffffffffffffffffffffffffffff160217905550808273ffffffffffffffffffffffffffffffffffffffff168473ffffffffffffffffffffffffffffffffffffffff167fddf252ad1be2c89b69c2b068fc378daa952ba7f163c4a11628f55a4df523b3ef60405160405180910390a46116fe838383600161201d565b505050565b6117148161170f6112b4565b612023565b50565b6117218282610d15565b6117f4576001600a600084815260200190815260200160002060000160008373ffffffffffffffffffffffffffffffffffffffff1673ffffffffffffffffffffffffffffffffffffffff16815260200190815260200160002060006101000a81548160ff0219169083151502179055506117996112b4565b73ffffffffffffffffffffffffffffffffffffffff168173ffffffffffffffffffffffffffffffffffffffff16837f2f8788117e7eff1d82e926ec794901d17c78024a50270940304540a733656f0d60405160405180910390a45b5050565b6118028282610d15565b156118d6576000600a600084815260200190815260200160002060000160008373ffffffffffffffffffffffffffffffffffffffff1673ffffffffffffffffffffffffffffffffffffffff16815260200190815260200160002060006101000a81548160ff02191690831515021790555061187b6112b4565b73ffffffffffffffffffffffffffffffffffffffff168173ffffffffffffffffffffffffffffffffffffffff16837ff6391f5c32d9c69d2a47ea670b442974b53935d1edc7fd64eb21e047a839171b60405160405180910390a45b5050565b6118e48282611717565b5050565b60006002600083815260200190815260200160002060009054906101000a900473ffffffffffffffffffffffffffffffffffffffff169050919050565b60006119817f8fae4cce25eb6fb3e1c918dd310f8d6f18409bec043c99e2296ef58d1f0fd4898380519060200120856040516020016119669392919061465a565b604051602081830303815290604052805190602001206120a8565b905092915050565b60006119be7f9f2df0fed2c77648de5860a4cc508cd0818c85b8b8a1ab4ceeef8d981c8956a66119b98585611ddd565b610d15565b905092915050565b6119e08282604051806020016040528060008152506120c2565b5050565b8173ffffffffffffffffffffffffffffffffffffffff168373ffffffffffffffffffffffffffffffffffffffff1603611a52576040517f08c379a0000000000000000000000000000000000000000000000000000000008152600401611a49906146dd565b60405180910390fd5b80600560008573ffffffffffffffffffffffffffffffffffffffff1673ffffffffffffffffffffffffffffffffffffffff16815260200190815260200160002060008473ffffffffffffffffffffffffffffffffffffffff1673ffffffffffffffffffffffffffffffffffffffff16815260200190815260200160002060006101000a81548160ff0219169083151502179055508173ffffffffffffffffffffffffffffffffffffffff168373ffffffffffffffffffffffffffffffffffffffff167f17307eab39ab6107e8899845ad3d59bd9653f200f220920489ca2b5937696c3183604051611b439190613314565b60405180910390a3505050565b611b5b84848461140a565b611b678484848461211d565b611ba6576040517f08c379a0000000000000000000000000000000000000000000000000000000008152600401611b9d9061476f565b60405180910390fd5b50505050565b606060006001611bbb846122a4565b01905060008167ffffffffffffffff811115611bda57611bd961368d565b5b6040519080825280601f01601f191660200182016040528015611c0c5781602001600182028036833780820191505090505b509050600082602001820190505b600115611c6f578080600190039150507f3031323334353637383961626364656600000000000000000000000000000000600a86061a8153600a8581611c6357611c6261478f565b5b04945060008503611c1a575b819350505050919050565b60606000825103611c9c57604051806020016040528060008152509050611dd8565b60006040518060600160405280604081526020016150856040913990506000600360028551611ccb91906147ed565b611cd59190614821565b6004611ce19190614852565b67ffffffffffffffff811115611cfa57611cf961368d565b5b6040519080825280601f01601f191660200182016040528015611d2c5781602001600182028036833780820191505090505b509050600182016020820185865187015b80821015611d98576003820191508151603f8160121c168501518453600184019350603f81600c1c168501518453600184019350603f8160061c168501518453600184019350603f8116850151845360018401935050611d3d565b5050600386510660018114611db45760028114611dc757611dcf565b603d6001830353603d6002830353611dcf565b603d60018303535b50505080925050505b919050565b6000806000611dec85856123f7565b91509150611df981612448565b819250505092915050565b60007f780e9d63000000000000000000000000000000000000000000000000000000007bffffffffffffffffffffffffffffffffffffffffffffffffffffffff1916827bffffffffffffffffffffffffffffffffffffffffffffffffffffffff19161480611e775750611e76826125ae565b5b9050919050565b60008073ffffffffffffffffffffffffffffffffffffffff16611ea0836118e8565b73ffffffffffffffffffffffffffffffffffffffff1614159050919050565b611ecb84848484612690565b6001811115611f0f576040517f08c379a0000000000000000000000000000000000000000000000000000000008152600401611f0690614906565b60405180910390fd5b6000829050600073ffffffffffffffffffffffffffffffffffffffff168573ffffffffffffffffffffffffffffffffffffffff1603611f5657611f51816127b6565b611f95565b8373ffffffffffffffffffffffffffffffffffffffff168573ffffffffffffffffffffffffffffffffffffffff1614611f9457611f9385826127ff565b5b5b600073ffffffffffffffffffffffffffffffffffffffff168473ffffffffffffffffffffffffffffffffffffffff1603611fd757611fd28161296c565b612016565b8473ffffffffffffffffffffffffffffffffffffffff168473ffffffffffffffffffffffffffffffffffffffff1614612015576120148482612a3d565b5b5b5050505050565b50505050565b61202d8282610d15565b6120a45761203a81612abc565b6120488360001c6020612ae9565b6040516020016120599291906149be565b6040516020818303038152906040526040517f08c379a000000000000000000000000000000000000000000000000000000000815260040161209b91906133bf565b60405180910390fd5b5050565b60006120bb6120b5612d25565b83612e3f565b9050919050565b6120cc8383612e72565b6120d9600084848461211d565b612118576040517f08c379a000000000000000000000000000000000000000000000000000000000815260040161210f9061476f565b60405180910390fd5b505050565b600061213e8473ffffffffffffffffffffffffffffffffffffffff1661308f565b15612297578373ffffffffffffffffffffffffffffffffffffffff1663150b7a026121676112b4565b8786866040518563ffffffff1660e01b81526004016121899493929190614a4d565b6020604051808303816000875af19250505080156121c557506040513d601f19601f820116820180604052508101906121c29190614aae565b60015b612247573d80600081146121f5576040519150601f19603f3d011682016040523d82523d6000602084013e6121fa565b606091505b50600081510361223f576040517f08c379a00000000000000000000000000000000000000000000000000000000081526004016122369061476f565b60405180910390fd5b805181602001fd5b63150b7a0260e01b7bffffffffffffffffffffffffffffffffffffffffffffffffffffffff1916817bffffffffffffffffffffffffffffffffffffffffffffffffffffffff19161491505061229c565b600190505b949350505050565b600080600090507a184f03e93ff9f4daa797ed6e38ed64bf6a1f0100000000000000008310612302577a184f03e93ff9f4daa797ed6e38ed64bf6a1f01000000000000000083816122f8576122f761478f565b5b0492506040810190505b6d04ee2d6d415b85acef8100000000831061233f576d04ee2d6d415b85acef810000000083816123355761233461478f565b5b0492506020810190505b662386f26fc10000831061236e57662386f26fc1000083816123645761236361478f565b5b0492506010810190505b6305f5e1008310612397576305f5e100838161238d5761238c61478f565b5b0492506008810190505b61271083106123bc5761271083816123b2576123b161478f565b5b0492506004810190505b606483106123df57606483816123d5576123d461478f565b5b0492506002810190505b600a83106123ee576001810190505b80915050919050565b60008060418351036124385760008060006020860151925060408601519150606086015160001a905061242c878285856130b2565b94509450505050612441565b60006002915091505b9250929050565b6000600481111561245c5761245b614adb565b5b81600481111561246f5761246e614adb565b5b03156125ab576001600481111561248957612488614adb565b5b81600481111561249c5761249b614adb565b5b036124dc576040517f08c379a00000000000000000000000000000000000000000000000000000000081526004016124d390614b56565b60405180910390fd5b600260048111156124f0576124ef614adb565b5b81600481111561250357612502614adb565b5b03612543576040517f08c379a000000000000000000000000000000000000000000000000000000000815260040161253a90614bc2565b60405180910390fd5b6003600481111561255757612556614adb565b5b81600481111561256a57612569614adb565b5b036125aa576040517f08c379a00000000000000000000000000000000000000000000000000000000081526004016125a190614c54565b60405180910390fd5b5b50565b60007f80ac58cd000000000000000000000000000000000000000000000000000000007bffffffffffffffffffffffffffffffffffffffffffffffffffffffff1916827bffffffffffffffffffffffffffffffffffffffffffffffffffffffff1916148061267957507f5b5e139f000000000000000000000000000000000000000000000000000000007bffffffffffffffffffffffffffffffffffffffffffffffffffffffff1916827bffffffffffffffffffffffffffffffffffffffffffffffffffffffff1916145b80612689575061268882613194565b5b9050919050565b60018111156127b057600073ffffffffffffffffffffffffffffffffffffffff168473ffffffffffffffffffffffffffffffffffffffff16146127245780600360008673ffffffffffffffffffffffffffffffffffffffff1673ffffffffffffffffffffffffffffffffffffffff168152602001908152602001600020600082825461271c9190614c74565b925050819055505b600073ffffffffffffffffffffffffffffffffffffffff168373ffffffffffffffffffffffffffffffffffffffff16146127af5780600360008573ffffffffffffffffffffffffffffffffffffffff1673ffffffffffffffffffffffffffffffffffffffff16815260200190815260200160002060008282546127a791906147ed565b925050819055505b5b50505050565b6008805490506009600083815260200190815260200160002081905550600881908060018154018082558091505060019003906000526020600020016000909190919091505550565b6000600161280c84610b93565b6128169190614c74565b90506000600760008481526020019081526020016000205490508181146128fb576000600660008673ffffffffffffffffffffffffffffffffffffffff1673ffffffffffffffffffffffffffffffffffffffff168152602001908152602001600020600084815260200190815260200160002054905080600660008773ffffffffffffffffffffffffffffffffffffffff1673ffffffffffffffffffffffffffffffffffffffff168152602001908152602001600020600084815260200190815260200160002081905550816007600083815260200190815260200160002081905550505b6007600084815260200190815260200160002060009055600660008573ffffffffffffffffffffffffffffffffffffffff1673ffffffffffffffffffffffffffffffffffffffff16815260200190815260200160002060008381526020019081526020016000206000905550505050565b600060016008805490506129809190614c74565b90506000600960008481526020019081526020016000205490506000600883815481106129b0576129af613ecf565b5b9060005260206000200154905080600883815481106129d2576129d1613ecf565b5b906000526020600020018190555081600960008381526020019081526020016000208190555060096000858152602001908152602001600020600090556008805480612a2157612a20614ca8565b5b6001900381819060005260206000200160009055905550505050565b6000612a4883610b93565b905081600660008573ffffffffffffffffffffffffffffffffffffffff1673ffffffffffffffffffffffffffffffffffffffff168152602001908152602001600020600083815260200190815260200160002081905550806007600084815260200190815260200160002081905550505050565b6060612ae28273ffffffffffffffffffffffffffffffffffffffff16601460ff16612ae9565b9050919050565b606060006002836002612afc9190614852565b612b0691906147ed565b67ffffffffffffffff811115612b1f57612b1e61368d565b5b6040519080825280601f01601f191660200182016040528015612b515781602001600182028036833780820191505090505b5090507f300000000000000000000000000000000000000000000000000000000000000081600081518110612b8957612b88613ecf565b5b60200101907effffffffffffffffffffffffffffffffffffffffffffffffffffffffffffff1916908160001a9053507f780000000000000000000000000000000000000000000000000000000000000081600181518110612bed57612bec613ecf565b5b60200101907effffffffffffffffffffffffffffffffffffffffffffffffffffffffffffff1916908160001a90535060006001846002612c2d9190614852565b612c3791906147ed565b90505b6001811115612cd7577f3031323334353637383961626364656600000000000000000000000000000000600f861660108110612c7957612c78613ecf565b5b1a60f81b828281518110612c9057612c8f613ecf565b5b60200101907effffffffffffffffffffffffffffffffffffffffffffffffffffffffffffff1916908160001a905350600485901c945080612cd090614cd7565b9050612c3a565b5060008414612d1b576040517f08c379a0000000000000000000000000000000000000000000000000000000008152600401612d1290614d4c565b60405180910390fd5b8091505092915050565b60007f000000000000000000000000000000000000000000000000000000000000000073ffffffffffffffffffffffffffffffffffffffff163073ffffffffffffffffffffffffffffffffffffffff16148015612da157507f000000000000000000000000000000000000000000000000000000000000000046145b15612dce577f00000000000000000000000000000000000000000000000000000000000000009050612e3c565b612e397f00000000000000000000000000000000000000000000000000000000000000007f00000000000000000000000000000000000000000000000000000000000000007f00000000000000000000000000000000000000000000000000000000000000006131fe565b90505b90565b60008282604051602001612e54929190614dd9565b60405160208183030381529060405280519060200120905092915050565b600073ffffffffffffffffffffffffffffffffffffffff168273ffffffffffffffffffffffffffffffffffffffff1603612ee1576040517f08c379a0000000000000000000000000000000000000000000000000000000008152600401612ed890614e5c565b60405180910390fd5b612eea81611e7e565b15612f2a576040517f08c379a0000000000000000000000000000000000000000000000000000000008152600401612f2190614ec8565b60405180910390fd5b612f38600083836001611ebf565b612f4181611e7e565b15612f81576040517f08c379a0000000000000000000000000000000000000000000000000000000008152600401612f7890614ec8565b60405180910390fd5b6001600360008473ffffffffffffffffffffffffffffffffffffffff1673ffffffffffffffffffffffffffffffffffffffff16815260200190815260200160002060008282540192505081905550816002600083815260200190815260200160002060006101000a81548173ffffffffffffffffffffffffffffffffffffffff021916908373ffffffffffffffffffffffffffffffffffffffff160217905550808273ffffffffffffffffffffffffffffffffffffffff16600073ffffffffffffffffffffffffffffffffffffffff167fddf252ad1be2c89b69c2b068fc378daa952ba7f163c4a11628f55a4df523b3ef60405160405180910390a461308b60008383600161201d565b5050565b6000808273ffffffffffffffffffffffffffffffffffffffff163b119050919050565b6000807f7fffffffffffffffffffffffffffffff5d576e7357a4501ddfe92f46681b20a08360001c11156130ed57600060039150915061318b565b6000600187878787604051600081526020016040526040516131129493929190614f04565b6020604051602081039080840390855afa158015613134573d6000803e3d6000fd5b505050602060405103519050600073ffffffffffffffffffffffffffffffffffffffff168173ffffffffffffffffffffffffffffffffffffffff16036131825760006001925092505061318b565b80600092509250505b94509492505050565b60007f01ffc9a7000000000000000000000000000000000000000000000000000000007bffffffffffffffffffffffffffffffffffffffffffffffffffffffff1916827bffffffffffffffffffffffffffffffffffffffffffffffffffffffff1916149050919050565b60008383834630604051602001613219959493929190614f49565b6040516020818303038152906040528051906020012090509392505050565b6040518061026001604052806013905b60608152602001906001900390816132485790505090565b6000604051905090565b600080fd5b600080fd5b60007fffffffff0000000000000000000000000000000000000000000000000000000082169050919050565b6132a981613274565b81146132b457600080fd5b50565b6000813590506132c6816132a0565b92915050565b6000602082840312156132e2576132e161326a565b5b60006132f0848285016132b7565b91505092915050565b60008115159050919050565b61330e816132f9565b82525050565b60006020820190506133296000830184613305565b92915050565b600081519050919050565b600082825260208201905092915050565b60005b8381101561336957808201518184015260208101905061334e565b60008484015250505050565b6000601f19601f8301169050919050565b60006133918261332f565b61339b818561333a565b93506133ab81856020860161334b565b6133b481613375565b840191505092915050565b600060208201905081810360008301526133d98184613386565b905092915050565b6000819050919050565b6133f4816133e1565b81146133ff57600080fd5b50565b600081359050613411816133eb565b92915050565b60006020828403121561342d5761342c61326a565b5b600061343b84828501613402565b91505092915050565b600073ffffffffffffffffffffffffffffffffffffffff82169050919050565b600061346f82613444565b9050919050565b61347f81613464565b82525050565b600060208201905061349a6000830184613476565b92915050565b6134a981613464565b81146134b457600080fd5b50565b6000813590506134c6816134a0565b92915050565b600080604083850312156134e3576134e261326a565b5b60006134f1858286016134b7565b925050602061350285828601613402565b9150509250929050565b613515816133e1565b82525050565b6000602082019050613530600083018461350c565b92915050565b60008060006060848603121561354f5761354e61326a565b5b600061355d868287016134b7565b935050602061356e868287016134b7565b925050604061357f86828701613402565b9150509250925092565b6000819050919050565b61359c81613589565b81146135a757600080fd5b50565b6000813590506135b981613593565b92915050565b6000602082840312156135d5576135d461326a565b5b60006135e3848285016135aa565b91505092915050565b6135f581613589565b82525050565b600060208201905061361060008301846135ec565b92915050565b6000806040838503121561362d5761362c61326a565b5b600061363b858286016135aa565b925050602061364c858286016134b7565b9150509250929050565b60006020828403121561366c5761366b61326a565b5b600061367a848285016134b7565b91505092915050565b600080fd5b600080fd5b7f4e487b7100000000000000000000000000000000000000000000000000000000600052604160045260246000fd5b6136c582613375565b810181811067ffffffffffffffff821117156136e4576136e361368d565b5b80604052505050565b60006136f7613260565b905061370382826136bc565b919050565b600067ffffffffffffffff8211156137235761372261368d565b5b61372c82613375565b9050602081019050919050565b82818337600083830152505050565b600061375b61375684613708565b6136ed565b90508281526020810184848401111561377757613776613688565b5b613782848285613739565b509392505050565b600082601f83011261379f5761379e613683565b5b81356137af848260208601613748565b91505092915050565b600080fd5b600080fd5b60008083601f8401126137d8576137d7613683565b5b8235905067ffffffffffffffff8111156137f5576137f46137b8565b5b602083019150836001820283011115613811576138106137bd565b5b9250929050565b600080600080606085870312156138325761383161326a565b5b6000613840878288016134b7565b945050602085013567ffffffffffffffff8111156138615761386061326f565b5b61386d8782880161378a565b935050604085013567ffffffffffffffff81111561388e5761388d61326f565b5b61389a878288016137c2565b925092505092959194509250565b6138b1816132f9565b81146138bc57600080fd5b50565b6000813590506138ce816138a8565b92915050565b600080604083850312156138eb576138ea61326a565b5b60006138f9858286016134b7565b925050602061390a858286016138bf565b9150509250929050565b600067ffffffffffffffff82111561392f5761392e61368d565b5b61393882613375565b9050602081019050919050565b600061395861395384613914565b6136ed565b90508281526020810184848401111561397457613973613688565b5b61397f848285613739565b509392505050565b600082601f83011261399c5761399b613683565b5b81356139ac848260208601613945565b91505092915050565b600080600080608085870312156139cf576139ce61326a565b5b60006139dd878288016134b7565b94505060206139ee878288016134b7565b93505060406139ff87828801613402565b925050606085013567ffffffffffffffff811115613a2057613a1f61326f565b5b613a2c87828801613987565b91505092959194509250565b600080600060608486031215613a5157613a5061326a565b5b6000613a5f868287016134b7565b935050602084013567ffffffffffffffff811115613a8057613a7f61326f565b5b613a8c8682870161378a565b925050604084013567ffffffffffffffff811115613aad57613aac61326f565b5b613ab986828701613987565b9150509250925092565b60008060408385031215613ada57613ad961326a565b5b6000613ae8858286016134b7565b9250506020613af9858286016134b7565b9150509250929050565b7f4e487b7100000000000000000000000000000000000000000000000000000000600052602260045260246000fd5b60006002820490506001821680613b4a57607f821691505b602082108103613b5d57613b5c613b03565b5b50919050565b7f4552433732313a20617070726f76616c20746f2063757272656e74206f776e6560008201527f7200000000000000000000000000000000000000000000000000000000000000602082015250565b6000613bbf60218361333a565b9150613bca82613b63565b604082019050919050565b60006020820190508181036000830152613bee81613bb2565b9050919050565b7f4552433732313a20617070726f76652063616c6c6572206973206e6f7420746f60008201527f6b656e206f776e6572206f7220617070726f76656420666f7220616c6c000000602082015250565b6000613c51603d8361333a565b9150613c5c82613bf5565b604082019050919050565b60006020820190508181036000830152613c8081613c44565b9050919050565b7f4552433732313a2063616c6c6572206973206e6f7420746f6b656e206f776e6560008201527f72206f7220617070726f76656400000000000000000000000000000000000000602082015250565b6000613ce3602d8361333a565b9150613cee82613c87565b604082019050919050565b60006020820190508181036000830152613d1281613cd6565b9050919050565b7f455243373231456e756d657261626c653a206f776e657220696e646578206f7560008201527f74206f6620626f756e6473000000000000000000000000000000000000000000602082015250565b6000613d75602b8361333a565b9150613d8082613d19565b604082019050919050565b60006020820190508181036000830152613da481613d68565b9050919050565b7f416363657373436f6e74726f6c3a2063616e206f6e6c792072656e6f756e636560008201527f20726f6c657320666f722073656c660000000000000000000000000000000000602082015250565b6000613e07602f8361333a565b9150613e1282613dab565b604082019050919050565b60006020820190508181036000830152613e3681613dfa565b9050919050565b7f455243373231456e756d657261626c653a20676c6f62616c20696e646578206f60008201527f7574206f6620626f756e64730000000000000000000000000000000000000000602082015250565b6000613e99602c8361333a565b9150613ea482613e3d565b604082019050919050565b60006020820190508181036000830152613ec881613e8c565b9050919050565b7f4e487b7100000000000000000000000000000000000000000000000000000000600052603260045260246000fd5b7f4552433732313a20696e76616c696420746f6b656e2049440000000000000000600082015250565b6000613f3460188361333a565b9150613f3f82613efe565b602082019050919050565b60006020820190508181036000830152613f6381613f27565b9050919050565b7f4552433732313a2061646472657373207a65726f206973206e6f74206120766160008201527f6c6964206f776e65720000000000000000000000000000000000000000000000602082015250565b6000613fc660298361333a565b9150613fd182613f6a565b604082019050919050565b60006020820190508181036000830152613ff581613fb9565b9050919050565b7f496e76616c6964207369676e6174757265000000000000000000000000000000600082015250565b600061403260118361333a565b915061403d82613ffc565b602082019050919050565b6000602082019050818103600083015261406181614025565b9050919050565b60008190508160005260206000209050919050565b60006020601f8301049050919050565b600082821b905092915050565b6000600883026140ca7fffffffffffffffffffffffffffffffffffffffffffffffffffffffffffffffff8261408d565b6140d4868361408d565b95508019841693508086168417925050509392505050565b6000819050919050565b600061411161410c614107846133e1565b6140ec565b6133e1565b9050919050565b6000819050919050565b61412b836140f6565b61413f61413782614118565b84845461409a565b825550505050565b600090565b614154614147565b61415f818484614122565b505050565b5b818110156141835761417860008261414c565b600181019050614165565b5050565b601f8211156141c85761419981614068565b6141a28461407d565b810160208510156141b1578190505b6141c56141bd8561407d565b830182614164565b50505b505050565b600082821c905092915050565b60006141eb600019846008026141cd565b1980831691505092915050565b600061420483836141da565b9150826002028217905092915050565b61421d8261332f565b67ffffffffffffffff8111156142365761423561368d565b5b6142408254613b32565b61424b828285614187565b600060209050601f83116001811461427e576000841561426c578287015190505b61427685826141f8565b8655506142de565b601f19841661428c86614068565b60005b828110156142b45784890151825560018201915060208501945060208101905061428f565b868310156142d157848901516142cd601f8916826141da565b8355505b6001600288020188555050505b505050505050565b600081905092915050565b60006142fc8261332f565b61430681856142e6565b935061431681856020860161334b565b80840191505092915050565b600061432e82866142f1565b915061433a82856142f1565b915061434682846142f1565b9150819050949350505050565b7f7b226e616d65223a2022546f6b656e2023000000000000000000000000000000600082015250565b60006143896011836142e6565b915061439482614353565b601182019050919050565b7f222c20226465736372697074696f6e223a2022456d61696c20646f6d61696e2060008201527f766572696669636174696f6e204e4654222c2022696d616765223a202264617460208201527f613a696d6167652f7376672b786d6c3b6261736536342c000000000000000000604082015250565b60006144216057836142e6565b915061442c8261439f565b605782019050919050565b7f227d000000000000000000000000000000000000000000000000000000000000600082015250565b600061446d6002836142e6565b915061447882614437565b600282019050919050565b600061448e8261437c565b915061449a82856142f1565b91506144a582614414565b91506144b182846142f1565b91506144bc82614460565b91508190509392505050565b7f646174613a6170706c69636174696f6e2f6a736f6e3b6261736536342c000000600082015250565b60006144fe601d836142e6565b9150614509826144c8565b601d82019050919050565b600061451f826144f1565b915061452b82846142f1565b915081905092915050565b7f4552433732313a207472616e736665722066726f6d20696e636f72726563742060008201527f6f776e6572000000000000000000000000000000000000000000000000000000602082015250565b600061459260258361333a565b915061459d82614536565b604082019050919050565b600060208201905081810360008301526145c181614585565b9050919050565b7f4552433732313a207472616e7366657220746f20746865207a65726f2061646460008201527f7265737300000000000000000000000000000000000000000000000000000000602082015250565b600061462460248361333a565b915061462f826145c8565b604082019050919050565b6000602082019050818103600083015261465381614617565b9050919050565b600060608201905061466f60008301866135ec565b61467c60208301856135ec565b6146896040830184613476565b949350505050565b7f4552433732313a20617070726f766520746f2063616c6c657200000000000000600082015250565b60006146c760198361333a565b91506146d282614691565b602082019050919050565b600060208201905081810360008301526146f6816146ba565b9050919050565b7f4552433732313a207472616e7366657220746f206e6f6e20455243373231526560008201527f63656976657220696d706c656d656e7465720000000000000000000000000000602082015250565b600061475960328361333a565b9150614764826146fd565b604082019050919050565b600060208201905081810360008301526147888161474c565b9050919050565b7f4e487b7100000000000000000000000000000000000000000000000000000000600052601260045260246000fd5b7f4e487b7100000000000000000000000000000000000000000000000000000000600052601160045260246000fd5b60006147f8826133e1565b9150614803836133e1565b925082820190508082111561481b5761481a6147be565b5b92915050565b600061482c826133e1565b9150614837836133e1565b9250826148475761484661478f565b5b828204905092915050565b600061485d826133e1565b9150614868836133e1565b9250828202614876816133e1565b9150828204841483151761488d5761488c6147be565b5b5092915050565b7f455243373231456e756d657261626c653a20636f6e736563757469766520747260008201527f616e7366657273206e6f7420737570706f727465640000000000000000000000602082015250565b60006148f060358361333a565b91506148fb82614894565b604082019050919050565b6000602082019050818103600083015261491f816148e3565b9050919050565b7f416363657373436f6e74726f6c3a206163636f756e7420000000000000000000600082015250565b600061495c6017836142e6565b915061496782614926565b601782019050919050565b7f206973206d697373696e6720726f6c6520000000000000000000000000000000600082015250565b60006149a86011836142e6565b91506149b382614972565b601182019050919050565b60006149c98261494f565b91506149d582856142f1565b91506149e08261499b565b91506149ec82846142f1565b91508190509392505050565b600081519050919050565b600082825260208201905092915050565b6000614a1f826149f8565b614a298185614a03565b9350614a3981856020860161334b565b614a4281613375565b840191505092915050565b6000608082019050614a626000830187613476565b614a6f6020830186613476565b614a7c604083018561350c565b8181036060830152614a8e8184614a14565b905095945050505050565b600081519050614aa8816132a0565b92915050565b600060208284031215614ac457614ac361326a565b5b6000614ad284828501614a99565b91505092915050565b7f4e487b7100000000000000000000000000000000000000000000000000000000600052602160045260246000fd5b7f45434453413a20696e76616c6964207369676e61747572650000000000000000600082015250565b6000614b4060188361333a565b9150614b4b82614b0a565b602082019050919050565b60006020820190508181036000830152614b6f81614b33565b9050919050565b7f45434453413a20696e76616c6964207369676e6174757265206c656e67746800600082015250565b6000614bac601f8361333a565b9150614bb782614b76565b602082019050919050565b60006020820190508181036000830152614bdb81614b9f565b9050919050565b7f45434453413a20696e76616c6964207369676e6174757265202773272076616c60008201527f7565000000000000000000000000000000000000000000000000000000000000602082015250565b6000614c3e60228361333a565b9150614c4982614be2565b604082019050919050565b60006020820190508181036000830152614c6d81614c31565b9050919050565b6000614c7f826133e1565b9150614c8a836133e1565b9250828203905081811115614ca257614ca16147be565b5b92915050565b7f4e487b7100000000000000000000000000000000000000000000000000000000600052603160045260246000fd5b6000614ce2826133e1565b915060008203614cf557614cf46147be565b5b600182039050919050565b7f537472696e67733a20686578206c656e67746820696e73756666696369656e74600082015250565b6000614d3660208361333a565b9150614d4182614d00565b602082019050919050565b60006020820190508181036000830152614d6581614d29565b9050919050565b7f1901000000000000000000000000000000000000000000000000000000000000600082015250565b6000614da26002836142e6565b9150614dad82614d6c565b600282019050919050565b6000819050919050565b614dd3614dce82613589565b614db8565b82525050565b6000614de482614d95565b9150614df08285614dc2565b602082019150614e008284614dc2565b6020820191508190509392505050565b7f4552433732313a206d696e7420746f20746865207a65726f2061646472657373600082015250565b6000614e4660208361333a565b9150614e5182614e10565b602082019050919050565b60006020820190508181036000830152614e7581614e39565b9050919050565b7f4552433732313a20746f6b656e20616c7265616479206d696e74656400000000600082015250565b6000614eb2601c8361333a565b9150614ebd82614e7c565b602082019050919050565b60006020820190508181036000830152614ee181614ea5565b9050919050565b600060ff82169050919050565b614efe81614ee8565b82525050565b6000608082019050614f1960008301876135ec565b614f266020830186614ef5565b614f3360408301856135ec565b614f4060608301846135ec565b95945050505050565b600060a082019050614f5e60008301886135ec565b614f6b60208301876135ec565b614f7860408301866135ec565b614f85606083018561350c565b614f926080830184613476565b969550505050505056fe3c73766720786d6c6e733d22687474703a2f2f7777772e77332e6f72672f323030302f73766722207072657365727665417370656374526174696f3d22784d696e594d696e206d656574222076696577426f783d223020302031303020313030223e3c673e3c7265637420783d22302220793d2230222077696474683d2231303022206865696768743d22313030222066696c6c3d22726564223e3c2f726563743e3c7465787420783d2231302220793d2235302220666f6e742d66616d696c793d2256657264616e612220666f6e742d73697a653d223130222066696c6c3d22626c7565223e404142434445464748494a4b4c4d4e4f505152535455565758595a6162636465666768696a6b6c6d6e6f707172737475767778797a303132333435363738392b2fa2646970667358221220a32bd599f65d8b90c240ede5e1b41c7347b4c7dea2f778bdcc96277b0cb9c15b64736f6c63430008110033",
    "linkReferences": {},
    "deployedLinkReferences": {}
}